:020000040800F2
:1000000030EA002049020008DD1000089D0D0008BC
:10001000D9100008B1090008C55A00080000000006
:100020000000000000000000000000002115000892
:10003000B5090008000000005F0200086102000826
:1000400063020008630200086302000863020008FC
:1000500063020008630200086302000863020008EC
:1000600063020008630200086302000863020008DC
:1000700063020008630200086302000863020008CC
:1000800063020008630200086302000863020008BC
:1000900063020008630200086302000863020008AC
:1000A000630200086302000863020008630200089C
:1000B000630200086302000863020008630200088C
:1000C000630200086302000863020008630200087C
:1000D00063020008DD1900086302000863020008DB
:1000E00063020008630200086302000800000000C9
:1000F0000000000000000000000000000000000000
:100100000000000000000000630200086302000815
:10011000630200086302000863020008D9160008A1
:10012000630200086302000863020008630200081B
:10013000630200086302000863020008630200080B
:1001400063020008630200086302000865110008EA
:1001500000F002F800F068F80AA090E8000C824471
:100160008344AAF10107DA4501D100F05DF8AFF24E
:10017000090EBAE80F0013F0010F18BFFB1A43F085
:100180000103184700350100203501000A444FF0F3
:10019000000C10F8013B13F0070408BF10F8014BE6
:1001A0001D1108BF10F8015B641E05D010F8016B2B
:1001B000641E01F8016BF9D113F0080F1EBF10F88F
:1001C000014BAD1C0C1B09D16D1E58BF01F801CBB2
:1001D000FAD505E014F8016B01F8016B6D1EF9D535
:1001E0009142D6D37047000000230024002500264A
:1001F000103A28BF78C1FBD8520728BF30C148BF8A
:100200000B607047642900F01381752900F010819C
:10021000782900F04981732900F034830020704769
:100220001FB51FBD10B510BD00F090FB1146FFF7C4
:10023000F7FF0AF095FF00F0AEFB03B4FFF7F2FF03
:1002400003BC05F048FC0000094880470948004706
:10025000FEE7FEE7FEE7FEE7FEE7FEE7FEE7FEE776
:10026000FEE7FEE704480549054A064B70470000D3
:100270006D1600085101000830E0002030EA00202F
:1002800030E2002030E20020704753EA020C00F018
:1002900069802DE9F04B4FF00006002B1FBFB3FA29
:1002A00083F503FA05F424FA05F65E4012BF1643FF
:1002B000B2FA82F502FA05F4C5F120051EBF22FA52
:1002C00005FC44EA0C04203556EA044C4FEA144479
:1002D00018BF641C4FF000084FF00009904271EB0A
:1002E000030C39D3002919BFB1FA81F701FA07F6D7
:1002F000B0FA80F700FA07F6C7F120071EBF20FA10
:1003000007FC46EA0C062037B6FBF4FCA7EB050712
:10031000103F07F01F0BCBF120060CFA0BFB2CFA59
:1003200006F644BFB3460026202FA4BF5E464FF01A
:10033000000B5BEA060C08BF4FF0010B19EB0B0931
:10034000ABFB027C48EB0608C01B06FB02CC0BFB98
:1003500003CC71EB0C01C1E70B460246414648460F
:10036000BDE8F08B13B54FF000004FF00001AFF384
:100370000080BDE81C4070470FB4044910B503AAC3
:10038000029800F083FA10BC5DF814FB30000020E6
:1003900070B5044685690068C10601D5302600E0C5
:1003A0002026C00707D070BDD4E901213046904710
:1003B000206A401C20626D1EF6D570BD70B50446E3
:1003C00085690078C00707D170BDD4E901212020DC
:1003D0009047206A401C20626D1EF6D570BD70B536
:1003E0000C460546012A05D02878800600D5EA6922
:1003F000002302E0012305E05B1C934202D2E05C93
:100400000028F9D1A869E618C01AA861286A18441A
:1004100028622846FFF7BCFF04E0D5E9012114F863
:10042000010B9047B442F8D32846FFF7C7FF70BDD1
:100430002DE9F0410646002410687529314616A5BD
:1004400010D0AFF30080002802DA404213A507E085
:1004500031688A0701D512A502E0490704D511A524
:10046000012401E0AFF3008000210A2206F12407F5
:1004700009E0B0FBF2FCB0FBF2F302FB1C003030F1
:1004800078541846491C0028F3D123462A463046A2
:10049000BDE8F04100F08BB9000000002D00000025
:1004A0002B0000002000000070B504460D462146D8
:1004B0001068AFF300802188090502D50F4A7A44FD
:1004C00002E00E4A7A440E32002104F1240305E0D2
:1004D00000F00F060009965D5E54491C0028F7D114
:1004E00020780023000704D5702D02D009B1022323
:1004F00011322046BDE8704000F059B9CE2F0100FE
:100500002DE9F05F894604464FF0000ADFF824B178
:10051000FB44C0F820A02046E168884700287DD031
:10052000252806D0D4E901219047206A401C20628A
:10053000F1E700255F462046E16888472028064607
:1005400007DB312E05D2B81910F8200C08B105438D
:10055000F1E7A80701D525F00405C4F81CA0002781
:10056000C4F818A02A2E09D0304605F0ADFA38B3E9
:1005700004EB8708303EC8F8186019E059F8041BEE
:10058000204604EB87029161E1688847012F064607
:1005900018D1E069002820DA25F020051DE0D8F800
:1005A000180000EB800006EB40003038C8F8180057
:1005B0002046E1688847064605F086FA0028EED115
:1005C000012F0AD02E2E08D12046E16888477F1CD3
:1005D0000646022F45F02005C4DBA069002803DA97
:1005E000404245F00105A061E80701D025F0100563
:1005F000A6B1A6F14100192802D8203645F40065BD
:100600004A463146204625604D46FFF7FBFD60B166
:10061000012807D0ED1D25F0070000E007E000F1FC
:10062000080978E705F1040975E730467AE7206A9A
:10063000BDE8F09FA42F010040EA010310B59B071D
:100640000FD1042A0DD310C808C9121F9C42F8D03C
:1006500020BA19BA884201D9012010BD4FF0FF30ED
:1006600010BD1AB1D30703D0521C07E0002010BD03
:1006700010F8013B11F8014B1B1B07D110F8013B8F
:1006800011F8014B1B1B01D1921EF1D1184610BD70
:1006900010B5431C02E010F8011B71B18107FAD1BB
:1006A0004FF0013202C88C1A8C4314EAC211F9D0FF
:1006B000C01A0A0603D0C01E10BDC01A10BD0A041D
:1006C00001D0801E10BD0902FCD0401E10BD032ABF
:1006D00040F2308010F0030C00F0158011F8013B5F
:1006E000BCF1020F624498BF11F801CB00F8013B46
:1006F00038BF11F8013BA2F1040298BF00F801CB0A
:1007000038BF00F8013B11F0030300F0D180083A34
:10071000C0F0088051F8043B083A51F804CBA0E837
:100720000810F5E7121D5CBF51F8043B40F8043B8C
:10073000AFF30080D20724BF11F8013B11F801CBC1
:1007400048BF11F8012B24BF00F8013B00F801CB92
:1007500048BF00F8012B70474FF0000200B5134668
:1007600094469646203922BFA0E80C50A0E80C50D1
:10077000B1F12001BFF4F7AF090728BFA0E80C5082
:1007800048BF0CC05DF804EB890028BF40F8042B7B
:1007900008BF704748BF20F8022B11F0804F18BFE8
:1007A00000F8012B704770477047704770472DE97C
:1007B000F0470D4699469246044600F12408016828
:1007C000880604D5E06921F01001216000E00120D5
:1007D000A84201DD471B00E00027A1697A1902EB5E
:1007E0000900081AA0612078C00602D42046FFF74D
:1007F000CFFD002608E0D4E901211AF80600904751
:10080000206A401C761C20624E45F4DB2078C0062E
:100810000AD52046FFF7BCFD06E0D4E901213020CF
:100820009047206A401C2062381EA7F10107F4DCC3
:1008300007E0D4E9012118F805009047206A401C20
:100840002062281EA5F10105F3DC2046FFF7B6FD66
:100850002078000602D50220BDE8F0870120FBE7E2
:1008600010B5436913B1AFF3008001E0FFF7B7FDA6
:10087000012010BD127800F124010A7000224A7094
:100880000122EDE711684FF0FF32E9E7074B70B541
:100890000D467B4400F043F80446284600F052F829
:1008A00010B14FF0FF3070BD204670BD9B8D000031
:1008B00010B5203AC0F00B80B1E81850203AA0E8FB
:1008C0001850B1E81850A0E81850BFF4F5AF5FEA2F
:1008D000027C24BFB1E81850A0E8185044BF18C9E2
:1008E00018C0BDE810405FEA827C24BF51F8043B89
:1008F00040F8043B08BF7047D20728BF31F8023BDD
:1009000048BF11F8012B28BF20F8023B48BF00F870
:10091000012B704701694A1C02610878704700B5D5
:100920008FB0CDE901310021059105497944CDE928
:10093000031011466846FFF7E3FD0FB000BD00004D
:10094000E5FFFFFF007B00F080007047754600F078
:100950002BF8AE4605006946534620F00700854651
:1009600018B020B5FFF77EFCBDE820404FF0000630
:100970004FF000074FF000084FF0000B21F0070187
:10098000AC46ACE8C009ACE8C009ACE8C009ACE8CA
:10099000C0098D46704710B50446AFF3008020466D
:1009A000BDE81040FFF749BC00487047CCDF00208D
:1009B00000BFFEE77047000008B50121442000F0A9
:1009C00009FC1020ADF800008DF8030003208DF81D
:1009D000020069460C4800F0EBF810210A4800F0CC
:1009E00072F90220ADF8000010208DF803000220FB
:1009F0008DF802006946054800F0DAF80221034844
:100A000000F061F908BD0000000801400018014035
:100A100010B50446FFF7D0FF00F0C8FC102000F02E
:100A200033FD204606F02CFB40F27641142006F000
:100A3000CFFC022006F086FD10BD00002DE9F0413C
:100A400000270024154940F2DC5006F023FC05463F
:100A500015B90020BDE8F081A9B2002204200BF0F6
:100A600053F907462FB929460DA0FFF785FC002052
:100A7000F0E73C4600260BE06289084B9919606854
:100A8000FFF725FE608906442468AE4200D301E0EA
:100A9000002CF1D100BF3846DCE70000185A0020D6
:100AA000454E4332384A36305F5061636B6574524D
:100AB0006563656976653A20706275665F616C6C26
:100AC0006F63206661696C202C6C656E3D25750A2C
:100AD0000900000070B50546002600242E4617E0E8
:100AE0007289154B18197168FFF7F1FD708904447C
:100AF00040F2DC50844202D82889A04207D22A89D9
:100B000021460EA0FFF738FC6FF0010070BD36687B
:100B1000002EE5D12889A04205D10749204606F0DC
:100B200019FC0020F2E72A89214611A0FFF724FCD6
:100B30006FF00100EAE700003C540020454E4332CC
:100B4000384A36305F5061636B657453656E643A42
:100B5000206572726F722C746D706C656E3D2575B8
:100B60002C746F745F6C656E3D25750A090000007A
:100B7000454E4332384A36305F5061636B6574537B
:100B8000656E643A206C656E677468206D69736D7C
:100B900061746368202C746D706C656E3D25752CD6
:100BA000746F745F6C656E3D25750A090000000066
:100BB0002DE9F041024600250026002000230024F4
:100BC000002791F803C00CF00F0591F803C00CF05A
:100BD000100CBCF1000F03D091F802C04CEA0505DF
:100BE00091F800C0BCF1000F31D0146800202BE058
:100BF0004FF0010C0CFA00F3B1F800C00CEA030648
:100C00009E4220D183004FF00F0C0CFA03F7BC4337
:100C100005FA03FC4CEA040491F803C0BCF1280F68
:100C200006D14FF0010C0CFA00FCC2F814C00AE027
:100C300091F803C0BCF1480F05D14FF0010C0CFA3C
:100C400000FCC2F810C0401C0828D1D31460B1F8D1
:100C500000C0BCF1FF0F34DD546800202EE000F12D
:100C6000080C4FF0010808FA0CF3B1F800C00CEAC8
:100C700003069E4221D183004FF00F0C0CFA03F7BC
:100C8000BC4305FA03FC4CEA040491F803C0BCF130
:100C9000280F05D100F1080C08FA0CF8C2F81480EE
:100CA00091F803C0BCF1480F07D100F1080C4FF0D8
:100CB000010808FA0CF8C2F81080401C0828CED3AE
:100CC0005460BDE8F0810161704701464869806861
:100CD00080B2704708B50146D1F8CC00006800909A
:100CE0000098C0F3414008BD024602F29F30405CCC
:100CF0007047024602F5557050F82100704770B5F4
:100D000004460E4600250021C4F8101300BF0BE076
:100D1000002104F5467040F825103C3040F82510BD
:100D20003C304155681CC5B20F2DF1DB0821A4F8F9
:100D3000B6133146204603F06DFE204603F060FAFC
:100D4000204603F027F90121204603F0CBFE204680
:100D500003F0B3F9204603F0ACFA002070BD014661
:100D6000D1F8100370470146D1F81403704710B54D
:100D70000446204603F02DFE002010BD70B5044649
:100D80000D46002104F29F304155113000EB451013
:100D900041612946204603F0CBFC70BD00BFFEE751
:100DA00010B5044614B101200D4908700C480078B4
:100DB00068B10C48006850B90A2005F021FC0948C8
:100DC000006850B9002006490870012010BD054890
:100DD0000068012801D1024908700020F6E70000F0
:100DE000360000202081214208B50121082000F0B2
:100DF000F1F94FF48070ADF8000048208DF8030041
:100E000069460248FFF7D4FE08BD0000000C01400F
:100E100010B5FFF7E9FF10BD10B506F033F810BDAF
:100E200010B5314C207830B1012815D0022824D0DB
:100E3000032844D132E00121082006F045F80021C2
:100E4000102006F041F80021202006F03DF8002196
:100E5000042006F039F833E00021082006F034F8C9
:100E60000121102006F030F80021202006F02CF897
:100E70000021042006F028F822E00021082006F0D6
:100E800023F80021102006F01FF80121202006F091
:100E90001BF80021042006F017F811E000210820BB
:100EA00006F012F80021102006F00EF80021202094
:100EB00006F00AF80121042006F006F800E000BF61
:100EC00000BF607818B10121022005F0FDFF6068C5
:100ED000002807DD0121084605F0F6FFA18888B249
:100EE00006F00AF810BD00001000002070B504469E
:100EF000064E211D304600F00BF805462D1D04223C
:100F00002146284600F0BFF8284670BD1800002092
:100F100070B506460D46002429193078012200F0EC
:100F2000B2F8641C29190422706800F0ACF8241D82
:100F300000222046641C2A54204670BD2DE9FC5F27
:100F400081460F46234EDFF890A04FF0000B351D71
:100F5000746C002F02DC0020BDE8FC9F042C20DA1A
:100F600028193A464946FFF7B2FB3C44042C15DBEE
:100F700028788DF8000068788DF80100A8788DF841
:100F80000200E8788DF8030000208DF80400684620
:100F900000F05EF8B064D6F848800AE04FF6FF78BB
:100FA00007E028193A464946FFF791FB3C44D6F83A
:100FB0004880444507DB5146284600F00FF80024DE
:100FC0004FF0010B02E0022C00D10024746458465B
:100FD000C2E700007808002010000020FEB504469B
:100FE0000D46042738467F1C205C8DF80000002049
:100FF0008DF80100684600F02BF8287038467F1CF9
:10100000205C8DF8000000208DF80100684600F09B
:101010001FF8687038467F1C205C8DF800000020A7
:101020008DF80100684600F013F8A870002605E06E
:1010300038467F1C205C0DF80600761C042EF7DB7A
:1010400000200DF80600684600F002F86860FEBD5A
:1010500010B501460023002210E0885C302802DB36
:10106000885C392802DD4FF0FF3010BD885C03EB4F
:10107000830400EB4400A0F13003521C885C00287C
:10108000EBD11846F1E7F0B50C46134601220021DA
:1010900003E002EB82067200491C9942F9DB90FBE7
:1010A000F2F602FB16001D4600216E1E721A10E0B9
:1010B00010B93026A65409E00A2690FBF6F706FB85
:1010C00017063036A6540A2690FBF6F0491C6E1E11
:1010D000721A002AECDAF0BD00BFFEE7704700008C
:1010E00070B5002100230F22C47804B3154C246886
:1010F00004F4E064C4F5E064210AC1F10403CA40C9
:10110000447804FA03F184781440214309010E4C19
:101110000678A155047804F01F050124AC40057839
:101120006D11AD0005F1E025C5F8004109E0047836
:1011300004F01F050124AC40044D0678761145F8F3
:10114000264070BD0CED00E000E400E080E100E02E
:1011500002490143024A1160704700000000FA058D
:101160000CED00E010B5024802F0F0F910BD0000EF
:10117000C802002029B1064A52690243044B5A6151
:1011800004E0034A52698243014B5A6170470000F0
:101190000010024029B1064AD2690243044BDA61C9
:1011A00004E0034AD2698243014BDA6170470000D0
:1011B0000010024029B1064A12690243044B1A6129
:1011C00004E0034A12698243014B1A617047000030
:1011D0000010024029B1064A92690243044B9A6109
:1011E00004E0034A92698243014B9A617047000010
:1011F0000010024029B1064AD2680243044BDA606B
:1012000004E0034AD2688243014BDA607047000071
:10121000001002402DE9F0410021002200250023AA
:101220000026002400278C46DFF86081D8F804806F
:1012300008F00C0121B1042907D0082959D109E08F
:10124000DFF84C81C0F8008058E0DFF84481C0F836
:10125000008053E0DFF83481D8F8048008F470127D
:10126000DFF82881D8F8048008F48035920C0D2A24
:1012700001D0921C00E0062235B9DFF8188102FB8C
:1012800008F8C0F8008033E0DFF80081D8F82C803F
:1012900008F48036DFF8F480D8F82C8008F00F08C6
:1012A00008F1010446B9DFF8E880B8FBF4F808FB60
:1012B00002F8C0F800801BE0DFF8D080D8F82C805E
:1012C000C8F3031808F10107DFF8C080D8F82C80B4
:1012D000C8F3032808F1020CDFF8B480B8FBF7F874
:1012E00008FB0CF8B8FBF4F808FB02F8C0F8008023
:1012F00004E0DFF89C80C0F8008000BF00BFDFF88A
:101300008C80D8F8048008F0F0010909DFF88880A3
:1013100018F80130D0F8008028FA03F8C0F80480EB
:10132000DFF86880D8F8048008F4E061090ADFF883
:10133000688018F80130D0F8048028FA03F8C0F863
:101340000880DFF84880D8F8048008F46051C90AA2
:10135000DFF8448018F80130D0F8048028FA03F848
:10136000C0F80C80DFF82480D8F8048008F44041ED
:10137000890BDFF8288018F80130D0F80C80B8FB12
:10138000F3F8C0F81080BDE8F081000000100240C2
:1013900000127A0000093D0050000020600000208B
:1013A0000149086070470000D800424200B587B08C
:1013B00001210420FFF70EFF01210803FFF70AFFB8
:1013C000E020ADF8180018208DF81B0003208DF8E0
:1013D0001A0006A91548FFF7EBFBE0211348FFF7B9
:1013E00072FC0020ADF804004FF48270ADF80600E6
:1013F0000020ADF80800ADF80A00ADF80C004FF47D
:101400000070ADF80E003820ADF810000020ADF8E7
:1014100012000720ADF8140001A9054800F062F899
:101420000121034800F044F807B000BD0008014066
:101430000030014070B50546002405E0601CC4B2D0
:10144000C82C01DD002070BD02210E4800F03CF8E0
:101450000028F3D029460B4800F042F8002405E0AC
:10146000601CC4B2C82C01DD0020ECE70121054856
:1014700000F02AF80028F3D0024800F02EF8C0B29D
:10148000E1E700000030014010B50446074800883D
:101490004FF6C77108400549088008460088204378
:1014A00008800121014800F003F810BD0030014020
:1014B00021B1028842F04002028004E002884FF627
:1014C000BF731A40028070470246002013890B4008
:1014D0000BB1012000E00020704701468889704769
:1014E0008181704710B50022028802F441520B88B6
:1014F0004C8823438C882343CC8823430C89234383
:101500004C8923438C892343CC8923431A4302808B
:10151000838B4FF2FF74234083830B8A038210BDB9
:10152000704710B500F002F810BD00000CB50020A7
:10153000019000903F48006840F480303D490860C9
:1015400000BF3C48006800F4003000900198401C47
:101550000190009818B90198B0F5A06FF1D1354805
:10156000006800F4003010B10120009001E000207C
:101570000090009801285CD12F48006840F01000CE
:101580002D4908600846006820F0030008600846FE
:10159000006840F00200086026484068254948601D
:1015A0000846406848600846406840F480604860EB
:1015B0000846C06A214908401E49C8620846C06AF8
:1015C0001F4908431B49C8620846006840F0806014
:1015D000086000BF1748006800F000600028F9D0DC
:1015E0001448406820F47C1012494860084640685E
:1015F00040F4E81048600846006840F080700860D9
:1016000000BF0C48006800F000700028F9D00948BD
:10161000406820F00300074948600846406840F0F1
:101620000200486000BF0348406800F00C00082832
:10163000F9D10CBD001002400020024000F0FEFF76
:1016400014080100042808D14FF0E021096941F095
:1016500004014FF0E022116107E04FF0E021096939
:1016600021F004014FF0E0221161704710B51648D7
:10167000006840F0010014490860084640681349BA
:1016800008401149486008460068114908400E4961
:1016900008600846006820F480200860084640681A
:1016A00020F4FE0048600846006820F0A050086062
:1016B0004FF47F0088600020C862FFF732FF4FF0D0
:1016C00000600449086010BD001002400000FFF0F7
:1016D000FFFFF6FE08ED00E010B50121064800F01E
:1016E0001EF840B105480068143004490860012123
:1016F000014800F005F810BD001400405001002022
:10170000CA430282704721B1028842F0010202807E
:1017100004E002884FF6FE731A400280704730B52D
:101720000246002000230024158A05EA010395895A
:1017300005EA010413B10CB1012000E0002030BD26
:101740001AB183890B43838102E083898B438381B0
:1017500070470000002202881D4B98420ED01D4B9E
:1017600098420BD0B0F1804F08D01B4B984205D067
:101770001A4B984202D01A4B984204D14FF68F73FD
:101780001A404B881A43174B984207D0164B984281
:1017900004D04FF6FF431A40CB881A4302808B884F
:1017A00083850B8803850A4B98420BD0094B9842DE
:1017B00008D00E4B984205D00D4B984202D00D4BED
:1017C000984201D10B7A038601238382704700007F
:1017D000002C01400034014000040040000800409B
:1017E000000C004000100040001400400040014088
:1017F000004401400048014010B500F01DF800F021
:1018000095F88C2000F032F800F0BAF810BD70B5F1
:1018100005460C4600F08AF8442000F027F800F056
:10182000AFF800F083F8284600F020F8204600F0DA
:101830001DF800F0A5F870BD08B501210820FFF7DC
:10184000C9FCC020ADF8000014208DF8030003206F
:101850008DF8020069460448FFF7AAF9C021024842
:10186000FFF731FA08BD0000000C014070B50446D6
:1018700000252B48006820F0704029490860084680
:10188000006840F0405008600020264908600026AB
:1018900017E004F001002349091D086064100420CA
:1018A00004F0D4FE01202049C1F89801022004F080
:1018B000CDFE00201B490860022004F0C7FE701C0A
:1018C000C6B2082EE5DB1648006820F070401449C7
:1018D00008600846006840F0004008600120114997
:1018E000091D0860022004F0B1FE00200E49C1F875
:1018F0009801022004F0AAFE05E0681CC5B2FA2D8A
:1019000001DD012070BD07487C3800680028F4D153
:10191000012004490860022004F098FE0020F1E74D
:10192000000C0140988121420080214210B51148ED
:10193000006820F070400F4908600846006840F0D9
:101940004050086001200C4908600C49C1F898011A
:10195000042004F07BFE002007490860042004F006
:1019600075FE00200549C1F89801042004F06EFEC0
:1019700010BD0000000C01409C81214200802142EA
:1019800010B51348006820F07040114908600846FF
:10199000006840F04050086000200E4908600220B6
:1019A00004F054FE00200C49C1F89C01022004F010
:1019B0004DFE012007490860042004F047FE012085
:1019C0000549C1F89C01042004F040FE10BD000050
:1019D000000C0140988121420080214210B540F264
:1019E00025511D4800F0A5F810B31B4800F05CF924
:1019F000C4B21A48008800F40040C8B917480088EB
:101A000000F4804060B10A2C03D000201349088004
:101A100020E01248008840F400401049088019E096
:101A20000D2C06D10D48008840F480400B490880F9
:101A300010E00A480088C0F30D0009490C5407481B
:101A40000088401C0549088008460088C72801DD39
:101A50000020088010BD0000003801403400002044
:101A6000C408002021B1828942F40052828104E03E
:101A700082894DF6FF731A408281704710B5044683
:101A80002048844209D101218803FFF7B3FB0021DC
:101A90004FF48040FFF7AEFB32E01B48844209D18F
:101AA00001214804FFF786FB00214FF40030FFF7C7
:101AB00081FB25E01548844209D101218804FFF704
:101AC00079FB00214FF48020FFF774FB18E01048E9
:101AD000844209D10121C804FFF76CFB00214FF4B7
:101AE0000020FFF767FB0BE00A48844208D1012180
:101AF0000805FFF75FFB00214FF48010FFF75AFB4A
:101B000010BD000000380140004400400048004083
:101B1000004C00400050004002460020B1F5007F1C
:101B200000D100BF13880B400BB1012000E0002062
:101B3000704770B50246002400230025002040F6BF
:101B40006A16B14200D100BFC1F3421501F01F0374
:101B5000012606FA03F3012D02D19689334006E0EF
:101B6000022D02D1168A334001E0968A33400C12CE
:101B7000012606FA04F41688344013B10CB1012092
:101B800000E0002070BDF0B50346002400260025CB
:101B9000002040F66A17B94200D100BF1846C1F3D1
:101BA000421401F01F06012707FA06F5012C01D1A6
:101BB0000C3004E0022C01D1103000E014301AB1D6
:101BC00007682F43076002E00768AF430760F0BD76
:101BD0002DE9F04786B005460E460024A24600BF18
:101BE000A1460027B08900B100BF2F462C8A4CF6D1
:101BF000FF700440F08804432C82AC894EF6F31049
:101C00000440B08831890843718908430443AC819A
:101C1000AC8A4FF6FF400440B0890443AC8201A86F
:101C2000FFF7F8FA1F48874202D1DDF810A001E063
:101C3000DDF80CA0A88900F4004040B10AEBCA000E
:101C400000EB0A1031684900B0FBF1F807E00AEB3D
:101C5000CA0000EB0A1031688900B0FBF1F864207B
:101C6000B8FBF0F004012009642101FB1089A88968
:101C700000F4004040B1322000EBC900B0FBF1F0AD
:101C800000F00700044308E0322000EB0910642153
:101C9000B0FBF1F000F00F0004432C8106B0BDE86A
:101CA000F08700000038014001468888C0F3080032
:101CB0007047C1F308028280704770B505460E4632
:101CC000284600F0CCF904464FF6FF70844205D058
:101CD00046F4004105F5B26020F81410E0B270BD82
:101CE0002DE9F04105460E4617461C46012105F533
:101CF0006C7000EB4410817005F56C7000EB4410C3
:101D0000C66005F56C7000EB4410076105F56C705A
:101D100000EB4410007E30B9002105F56C7000EB3B
:101D20004410017205E0022105F56C7000EB4410CF
:101D3000017221462846FFF721F80020BDE8F08116
:101D40002DE9F04105460E4617461C46002105F5D3
:101D50006C7000EB4410817005F56C7000EB441062
:101D6000C66005F56C7000EB4410076105F56C70FA
:101D700000EB4410407E28B905F56C7000EB441070
:101D8000017205E0022105F56C7000EB4410017250
:101D900021462846FEF7F2FF0020BDE8F0812DE93C
:101DA000F04105460C4616461F46022121750121C9
:101DB00061750021E1822683618306F0800080281E
:101DC00005D105F56C7000EB4710017605E00021A8
:101DD00005F56C7000EB4710417600231A4621464A
:101DE000284600F02BF8BDE8F08101460122C1F839
:101DF0001023002070472DE9F04105460E46174696
:101E00001C46012105F56C7000EB44108170022125
:101E100005F56C7000EB4410017205F56C7000EB79
:101E20004410C66005F56C7000EB44100761214654
:101E30002846FEF7A3FF0020BDE8F0812DE9F04120
:101E400080460C4615461E460127E078012802D040
:101E5000022820D108E032462946204601F03BFE08
:101E60000220E070012717E0207F0D2805D1012016
:101E7000E0700021217700270CE0207F0B2803D1A0
:101E80000120E070022705E0207F0C2802D101200C
:101E9000E070032700E000BF00BF3846BDE8F081D6
:101EA0002DE9F04105460F4616461C46002105F572
:101EB0006C7000EB4410817005F56C7000EB441001
:101EC000C76005F56C7000EB441006612EB9012166
:101ED00005F56C7000EB4410417605F56C7000EB75
:101EE0004410407E30B9002105F56C7000EB4410C1
:101EF000017205E0022105F56C7000EB44100172DF
:101F000021462846FEF73AFF0020BDE8F08170B573
:101F100005460E461446002105F56C7000EB441092
:101F20008170032105F56C7000EB4410017205F51A
:101F30006C7000EB4410C660082105F56C7000EB76
:101F40004410016121462846FEF718FFC0B270BD5B
:101F50000246022106E0002302F5B26020F81130AB
:101F6000481CC1B20829F6DB0020704770B5054651
:101F70000C46002020706070A0700120E0700121EC
:101F800021774021A171002084F820000121212027
:101F900001552179284600F031F86179284600F092
:101FA0002DF8002070BD10B504460021204601F038
:101FB000B4FF0020E1688861401EE1684861204666
:101FC00002F01EF90021C4F81013002010BD70B5F6
:101FD00004460D46052D01D0042D06D1D4F89010ED
:101FE000486C80470C20207007E0062D05D10C209E
:101FF0002070D4F890100868804770BD0246082908
:1020000009DA02F5B26030F81100C0F30E0302F5F0
:10201000B26020F81130002070472DE9F04780466B
:102020000C4616461D46DDE9089746F080012175ED
:1020300006216175E58205F47F40B0F5407F03D14C
:1020400040F20941218301E00021218367833B465F
:102050004A4621464046FFF7F1FEBDE8F0870246BA
:10206000002100BF0AE002F5B26030F8110000F470
:10207000004008B908467047481CC1B20829F2DB85
:102080004FF6FF70F7E710B502460B88147823442B
:102090000B801378981810BD2DE9FC4704460D46B7
:1020A00016464FF0000804F588704FF400730022C4
:1020B0002946CDE900062046FFF7AFFFB0F1000941
:1020C0001BD10AE004F5887010F808000C4901F8EB
:1020D000080008F101001FFA80F8B045F2DB04F5B2
:1020E000887305F1500205F13E0105F134000096B8
:1020F00001F0CEFA074607B1B9464846BDE8FC876D
:10210000A04D00202DE9FC4104460D46164604F57D
:1021100088704FF4807300222946CDE900062046DE
:10212000FFF77BFF071E06D1324604F5887105F1E3
:10213000220001F047FB3846BDE8FC812DE9FC4751
:102140000446884615461E460A9F04F5887045F4E5
:10215000407300224146CDE900072046FFF75DFFAE
:10216000B0F1000905D13A46314604F5887001F016
:1021700078FB4846BDE8FC872DE9F04106460C4651
:102180004FF0000800250021A174207F0C2878D290
:10219000DFE800F077060F3D466778939CC2D9F0E0
:1021A000627904F114013046FFF7B1FE0221217774
:1021B000F1E061793046FEF797FD0546012D1FD10C
:1021C000207D00F08007608B58B141F2883074495F
:1021D0000880802F02D1032121770CE0052121778F
:1021E00009E032206E490880802F02D10921217731
:1021F00001E0072121773046FEF767FD208205E0E8
:10220000032D03D10B2121770521A174C3E023798C
:10221000A2893046A168FFF7EEFD04212177BAE0DC
:1022200021793046FEF760FD0546012D01D10921D7
:102230002177042D04D1607820700C2121770FE0E4
:10224000032D02D10B2121770AE03046FEF73DFD38
:10225000218A401A52490988884201D90B212177E5
:1022600099E00121627906F56C7000EB421041762D
:102270006379A2893046A168FFF712FE0621217713
:1022800089E087E061793046FEF72EFD0546012D95
:1022900002D1072121770FE0042D04D1607820704E
:1022A0000C21217708E0022D02D10521217703E0DE
:1022B000032D01D10B2121776DE0237900221146F6
:1022C0003046FFF798FD0821217764E021793046F8
:1022D000FEF70AFD0546012D04D1607820700D211E
:1022E000217718E0032D02D10B21217713E030462E
:1022F000FEF7EBFC218A401A29490988884202D955
:102300000B21217707E0042D05D1607820700C2186
:1023100021774FF003083EE0617906F56C7000EB21
:102320004110407E80F00101627906F56C7000EB8F
:10233000421041766379002211463046FFF7B0FD26
:102340000A21217727E061793046FEF7CDFC05466A
:10235000012D04D1607820700D21217708E0022D35
:1023600002D10921217703E0032D01D10B2121772F
:1023700011E0FFE7A07B401CC1B2A173022902DC7F
:102380000121217705E00821A174607820704FF0C9
:10239000020800E000BF00BF4046BDE8F081000039
:1023A000BC00002070B592B005460C460126A0780E
:1023B0000A287BD2DFE800F00525345A677B98B500
:1023C000D2DC082221462846FFF79CFEC0B994F8CB
:1023D0002910A1710120A070A0790021CDE9001081
:1023E000617900231A46284601F07EF8A079002181
:1023F000CDE90010217900231A46284601F074F82F
:10240000B9E0122221462846FFF77CFE38B9D4F8FD
:102410009000C16904F1220088470220A070AAE060
:1024200001222146284601F030FBF0B9022001F0DC
:10243000A5FD0120A41CA077D4F88E10086A80475F
:1024400003202070002000900190A27FA178034615
:10245000284601F049F8002000900190A27FA41EB8
:1024600061790346284601F03FF884E009222146BD
:102470002846FFF711FE28B9E08EB0F5806F01DC29
:102480000420A07077E0E28E21462846FFF704FE84
:1024900058B9D4F8900004F1500204F13E01436AA7
:1024A00004F1340098470520A07064E062E094F8DD
:1024B000300088B1FF20009094F8302002AB214614
:1024C0002846FFF73BFE70B9D4F89000816A02A855
:1024D00088470620A07006E0D4F89000816A28A002
:1024E00088470620A07046E094F8310088B1FF20AC
:1024F000009094F8312002AB21462846FFF71EFEDB
:1025000070B9D4F89000C16A02A888470720A0706B
:1025100006E0D4F89000C16A19A088470720A0708F
:1025200029E094F8320088B1FF20009094F832201E
:1025300002AB21462846FFF701FE70B9D4F890009F
:10254000016B02A888470820A07006E0D4F890002C
:10255000016B0BA088470820A0700CE094F839208C
:102560002146284601F0A4FA08B90920A07002E02B
:10257000002600E000BF00BF304612B070BD000072
:102580004E2F41002DE9F04106460F4614461D46E8
:10259000DDF81880304601F0D3FC002001F0BCFCCF
:1025A00021463046FFF7E2FCC4F88C50C4F8908016
:1025B00039463046FEF7A3FBD4F8901008688047F0
:1025C000304601F0ABFCBDE8F08100002DE9F041A0
:1025D00005460E461446012714B1012C12D108E01D
:1025E00010480378C27831462846FFF7D8FB0746E3
:1025F00009E00C484378827831462846FFF7CFFB44
:10260000074600E000BF00BF07480068401C0649BD
:10261000086008460068042800D904273846BDE849
:10262000F0810000E04F0020C400002010B50246F9
:1026300000200023014C237010BD0000D04F00206B
:102640002DE9F04105460F46002601242846FEF7F5
:1026500086FB20B3154801782846FEF74AFB06465C
:102660000D2E01D002241CE0114800681149884257
:1026700016D10F48406810494968884211D10C486A
:10268000007B08B900240CE00948007B012801D137
:10269000012406E00648007B022802D1022400E063
:1026A00002240648C4732046BDE8F081E04F0020B4
:1026B000C04F002055534253A04F0020D04F002060
:1026C000012812D10D490978491C0C4A1170114694
:1026D00009780A2905DA0621094A11700121D17009
:1026E0000AE00A21064A117006E0022803D10A21F5
:1026F000034A117000E000BF70470000E4000020B2
:10270000D04F002070B505460C46A1212175FE2151
:1027100061750021E1822183012161830123034A44
:1027200021462846FFF78AFB70BD0000E84F0020D5
:102730002DE9F04781460F463E46012503244FF020
:1027400000084846FEF70BFB002878D05548007873
:102750000B2875D2DFE800F006A10D44556692798A
:102760007E339000484600F0A9FA02204D490870D7
:1027700094E039464846FFF7C5FF0546BDB94A48CB
:10278000007A494981F84800084690F84800002836
:102790000ADD4648007838B9012044490870D6F867
:1027A0009010086C804779E003203E490870032DA3
:1027B00004D103203B494870092008706EE073790A
:1027C000002239464846FFF7EAFA05463DB900209F
:1027D000354981F8480033484078324908705DE057
:1027E000484600F0B7FD04463CB904202D49087066
:1027F00000202F490870002502E02046FFF760FF07
:102800004CE0484600F0C8FC04463CB90520254988
:102810000870002026490870002502E02046FFF7D6
:102820004FFF3BE0484600F0CFFB04464CB9082080
:102830001C49087000201E490870002504E02EE0A5
:102840002BE02046FFF73CFF28E03946484600F0E1
:1028500031F823E0D6F89010C86B804700F0FF08ED
:10286000B8F1000F03D108200E49087003E0B8F159
:10287000010F00D1062511E004250FE0484600F0C5
:10288000F9FC04462CB90748407806490870002531
:1028900002E02046FFF714FF00E000BF00BF28461B
:1028A000BDE8F087D04F0020E04F0020F800002066
:1028B000E40000202DE9F047804689460024404688
:1028C000FEF74DFA00287DD0F248007909287AD227
:1028D000DFE800F079051568CEFDFCFBFA00EE4854
:1028E00043781F22ED494046FFF72AFA0120E949C3
:1028F0004871022008710020E9490870C6E1E648E5
:1029000041784046FEF7F0F90446012C26D100201C
:10291000E44908600220DF494871E048007B00F08C
:102920008007DE488068A8B1DC488068DE4908601E
:10293000D8488068DD49086008460068DC490860BE
:10294000802F03D10320D34908712AE00420D14904
:10295000087126E00520CF49087122E0022C04D13D
:10296000CC484079CB4908711BE0042C06D10120EA
:10297000D04908700820C749087112E0032C10D113
:10298000C7480078401CC6490870084600780328EC
:1029900004DAC0484079BF49087102E00220BD490D
:1029A000C87373E1BC4801784046FEF79DF90446C0
:1029B000012C03D0B748407903283AD00020B94908
:1029C000086001E063E160E10320B2494871B24868
:1029D0008088B5490968884216D2AF480378828852
:1029E000B24801684046FFF77BF9AB488088AE49A2
:1029F0000968081AAC490860A7488088AB4909688B
:102A00000844AA49086032E0A748006818B90520C0
:102A1000A04908712BE0A0480378A348008882B23F
:102A2000A24801684046FFF75BF900209E49086014
:102A30001DE0042C08D100209E490870072095490C
:102A400008710520487112E0032C10D194480078D9
:102A5000401C9349087008460078032804DA8D4822
:102A600040798C49087102E002208A49C8730DE15F
:102A7000894841784046FEF737F90446012C43D196
:102A80000020884908600420824948718248C08833
:102A900085490968884222D27F484378C2888348A2
:102AA00001684046FFF74CF980480068804908609B
:102AB0007948C0887D49096808447C49086076489F
:102AC000C0887949096803E0CDE0B2E07CE059E0D4
:102AD000081A7549086000207149087051E0724871
:102AE000006818B905206B4908714AE06A484378C4
:102AF0006D48008882B26D4801684046FFF720F9B2
:102B00000020694908603CE0022C1CD1674800683D
:102B10006749096888420DD05F484378C288C088F9
:102B2000DFF888C1DCF800C0ACEB00014046FFF7DD
:102B300007F926E058484378C2885C480168404657
:102B4000FFF7FEF81DE0042C08D101205949087058
:102B50000820504908710520487112E0032C10D15B
:102B60004F480078401C4E490870084600780328FA
:102B700004DA484840794749087102E00220454993
:102B8000C87383E00520434948714B4888603F2063
:102B900088810C2604E0002047498855701EC6B283
:102BA000002EF8D10020444908703B48037839488A
:102BB0003F2281684046FFF793F8062035490871A7
:102BC00000203749087061E0334801784046FEF73D
:102BD0008BF80446012C0FD10020324908600520F3
:102BE0002C49487108468078087049464046FFF7EE
:102BF00027FD2849C8731BE0042C06D100202D496D
:102C0000087007202349087112E0032C10D12448D2
:102C10000078401C2249087008460078032804DA2E
:102C20001C4840791B49087102E002201949C87309
:102C30002CE0002249464046FFF7C8FC054665B92E
:102C40001C480078022803D108201249087109E0C5
:102C5000104840790F49087104E0042D02D1022088
:102C60000C49C87312E0012249464046FFF7AEFC0A
:102C7000054625B9074840790649087104E0042D46
:102C800002D102200349C87300E000BF00BFBDE8C5
:102C9000F0870000D04F0020E04F0020A04F002020
:102CA000C8000020C4000020CC000020D00000207C
:102CB000D4000020D8000020C04F002010B50446EA
:102CC0002046FEF74CF848B1074808490860084814
:102CD00048600020487301200649C870002006495A
:102CE00008600649087010BD55534243A04F0020AC
:102CF00050403020D04F0020C4000020E4000020CD
:102D000070B504460D461048407860B10E484178D1
:102D1000204601F0A4FB0C4841782046FFF76EF9ED
:102D20000020094948700848007860B106480178D9
:102D3000204601F094FB044801782046FFF75EF935
:102D400000200149087070BDE04F00207CB50646A8
:102D50000D462C4694F84300082856D194F84500B7
:102D6000502852D194F8520000F0800038B194F805
:102D700052004649C870B4F85400888006E094F8C0
:102D8000520042498870B4F85400C88094F85A0040
:102D900000F0800038B194F85A003C49C870B4F88B
:102DA0005C00888006E094F85A0038498870B4F8CE
:102DB0005C00C880354881783046FEF77EFF334995
:102DC00048700846C1783046FEF777FF2F490870F3
:102DD0000846C0880221CDE900102120035D94F847
:102DE00020202A484178304600F004FC274880889B
:102DF0000221CDE900102120035D94F82020234812
:102E00000178304600F0F6FB3EE094F843000928D4
:102E100003D11FA0FDF7B0FA32E094F84300022876
:102E200003D121A0FDF7A8FA2AE094F84300032873
:102E300003D12CA0FDF7A0FA22E094F84300072864
:102E400003D130A0FDF798FA1AE094F843000B285C
:102E500003D135A0FDF790FA12E094F843000E2854
:102E600003D13BA0FDF788FA0AE094F8430010284C
:102E700003D140A0FDF780FA02E048A0FDF77CFAFC
:102E8000D4F89010086C804700207CBDE04F0020F3
:102E9000487562206973206E6F7420737570706F4F
:102EA000727465642E0D0A00436F6D6D756E6963F3
:102EB0006174696F6E7320616E64204344432043E4
:102EC0006F6E74726F6C20646576696365206973D8
:102ED000206E6F7420737570706F727465642E0D40
:102EE0000A000000484944206465766963652069EA
:102EF00073206E6F7420737570706F727465642EBA
:102F00000D0A00005072696E7465722064657669FE
:102F10006365206973206E6F7420737570706F72B3
:102F20007465642E0D0A0000536D61727420436154
:102F3000726420646576696365206973206E6F74BE
:102F400020737570706F727465642E0D0A00000036
:102F5000566964656F2064657669636520206973CE
:102F6000206E6F7420737570706F727465642E0DAF
:102F70000A000000417564696F2F566964656F200F
:102F800044657669636573206973206E6F7420737E
:102F90007570706F727465642E0D0A005468652038
:102FA0006174746163686564206465766963652033
:102FB0006973206E6F7420737570706F72746564BE
:102FC0002E200D0A0000000070B505460326284695
:102FD000FDF7C5FE002855D02B48C078012802D047
:102FE00002284DD127E03F202849886080200873BF
:102FF0000A208873264824498860052088700F2499
:1030000005E0002121480F300155601EC4B2002C9C
:10301000F7D11A201D49C8733F211C484174C1745F
:10302000012019490871072008700320C873022085
:10303000C870032625E01448C07B80B91448807806
:1030400000F0800018B101201249087302E000204E
:103050001049087301200C49C87000260FE00A4887
:10306000C07B012803D10849C870012607E0064843
:10307000C07B022803D101200349C870022600E06A
:1030800000BF00BF304670BDD04F0020A04F0020D1
:103090003C5000202C500020FFB581B007460E4662
:1030A0001D460320394908703846FDF758FE0028B0
:1030B00067D03748C078012802D002285FD139E0B4
:1030C000344885608020334908730A20887330486B
:1030D00086600F2405E000212E480F300155601E48
:1030E000C4B2002CF7D128202A49C8739DF80F10CC
:1030F000284841749DF80E1081749DF80D10C1741C
:103100009DF80C100175C5F34F2000909DF801103B
:10311000204881759DF80010C17501201C49087177
:10312000072008700320C8730220C87003201749C5
:10313000087025E01648C07B50B93846FDF70FFEF1
:1031400030B101201249C87000201049087015E004
:103150000F48C07B012807D13846FDF700FE18B1A3
:1031600001200B49C87009E00948C07B022805D13D
:1031700001200749C87002200449087000E000BF20
:1031800000BF0248007805B0F0BD0000F900002043
:10319000D04F0020A04F002070B5054603262846DA
:1031A000FDF7DDFD00285AD02E48C078012802D056
:1031B000022852D123E008202B4988608020087320
:1031C0000A208873294827498860042088700F24C2
:1031D00005E0002124480F300155601EC4B2002CC8
:1031E000F7D125202049C87301201E490871072006
:1031F00008700320C8730220C87003262EE0194807
:10320000C07BC8B9194800781949C8701748407878
:1032100088701648807848701448C0780870134841
:103220008179134841721148C0791149087201200F
:103230000C49C87000260FE00A48C07B012803D162
:103240000849C870012607E00648C07B022803D160
:1032500001200449C870022600E000BF00BF3046CC
:1032600070BD0000D04F0020A04F00203C50002037
:103270002C50002070B5054603262846FDF76FFD4B
:1032800000285DD02F48C078012802D0022855D1EF
:103290002BE03F202C498860802008730A20887327
:1032A0002A48284988600846807848700620887037
:1032B0000F2405E0002124480F300155601EC4B2E0
:1032C000002CF7D103202049C87300211E48017447
:1032D0003F21C17401201B49087107200870032099
:1032E000C8730220C870032629E01648C07BA0B925
:1032F000164801781648C171144841781448817104
:1033000012488178124841711048C07810490871FC
:1033100001200C49C87000260FE00A48C07B012834
:1033200003D10849C870012607E00648C07B02287F
:1033300003D101200349C870022600E000BF00BF8E
:10334000304670BDD04F0020A04F00203C500020E0
:103350002C50002070B5054603262846FDF7FFFCDB
:10336000002846D02448C078012802D002283ED147
:1033700024E00020214988600873062088732048D3
:103380001D4988603F208881032088700F2405E054
:1033900000211A480F300155601EC4B2002CF7D12D
:1033A00000201649C87301201349087107200870CE
:1033B0000320C8730220C870032619E00E48C07BA2
:1033C00020B901200C49C87000260FE00A48C07BD4
:1033D000012803D10849C870012607E00648C07BD0
:1033E000022803D101200449C870022600E000BF72
:1033F00000BF304670BD0000D04F0020A04F00201D
:10340000C04F00202DE9FF4182B007460E461D4601
:103410004FF003083846FDF7A2FC00285BD0304887
:10342000C078012802D0022853D138E02D488560A9
:1034300000202C4908730A208873294886600F24CD
:1034400005E0002127480F300155601EC4B2002C52
:10345000F7D12A202349C8739DF8131021484174DD
:103460009DF8121081749DF81110C1749DF8101010
:103470000175C5F34F2001909DF80510194881751D
:103480009DF80410C17501201549087107200870C6
:103490000320C8730220C8704FF003081AE01048D8
:1034A000C07B28B901200E49C8704FF000080FE01A
:1034B0000B48C07B012802D10949C87008E00848C0
:1034C000C07B022804D101200549C8704FF00208D2
:1034D00000E000BF00BF404606B0BDE8F08100003C
:1034E000D04F0020A04F00202DE9F04704460D46A4
:1034F00017461E46DDE9089827B104F56C7000EB0D
:103500004510077004F56C7000EB4510C08840450D
:1035100008D0B8F1000F05D004F56C7000EB451031
:10352000A0F8068004F56C7000EB4510C078B0423E
:1035300005D026B104F56C7000EB4510C670294625
:10354000204600F0D9FF0020BDE8F08738B50546D9
:10355000002400200090284601F0F9F9002847D007
:10356000284601F0FEF90090009808B9002038BD07
:103570000098C0F3C00018B1284602F0A9F904432E
:103580000098C0F3001018B1284602F0EEF804438A
:103590000098C0F3401018B1284601F01AFF044308
:1035A0000098C0F3806018B1284602F047F8044341
:1035B0000098C0F3406018B1284601F0F4FA0443C3
:1035C0000098C0F3006018B1284601F099FF044349
:1035D0000098C0F3407018B1284601F0ABFA0443DC
:1035E0000098C0F3405018B1284601F0B9FA0443DE
:1035F0002046BCE72DE9F04704460D4617461E4617
:10360000DDE9088904F5B26010F8150000F07F01CB
:1036100004F56C7000EB4510417004F5B26010F8D1
:103620001500C0F3C01104F56C7000EB45108170FB
:1036300004F56C7000EB4510077004F56C7000EB3E
:10364000451080F8058004F56C7000EB4510A0F87B
:10365000069004F56C7000EB4510C670002104F56F
:103660006C7000EB4510017604F56C7000EB4510B2
:1036700041762EB9012104F56C7000EB4510017103
:103680002946204600F038FF0020BDE8F087000002
:103690002DE9F04F87B006468A4693461D462C46D4
:1036A0000027B84600BF2878307068787070A97815
:1036B000E87801EB002070802879307168797071AA
:1036C000A879B071E879F071287A307210980928D9
:1036D00072DD092001903079022864DC0020069018
:1036E0005BE001A92046FEF7CEFC04466078042882
:1036F00053D1A07847B207EBC70050440690E0785A
:1037000003284ADA214603A800F098F84FF0000891
:103710009DF8100003283ADC34E001A92046FEF7AA
:10372000B2FC0446607805282CD107EB47000BEB70
:10373000C00000EBC800029020480078B84206D0D4
:103740001E490F7003A9069800F078F80CE0217963
:10375000607901EB00201A490988884200DA15E0F7
:1037600003A9069800F06AF82146029800F056F87E
:103770002179607901EB00201149088008F10100EE
:103780004FFA80F89DF810004045C6DC05E04FF088
:103790000309484607B0BDE8F08F7088BDF80410F3
:1037A00088429EDC03E04FF003094846F2E7002020
:1037B00003490880014908700020EBE7C0000020A1
:1037C000BE00002010B50B7803704B7843708C78E6
:1037D000CB7804EB032343800B7903714B7943715E
:1037E0008B798371CB79C371082A16DD0C7A4B7AF9
:1037F00004EB032303818C7ACB7A04EB032343810C
:103800000C7B4B7B04EB032383818B7B8373CB7B10
:10381000C3730B7C03744B7C437410BD0A78027035
:103820004A7842708A788270CA78C2700B794A7975
:1038300003EB022282808A79827170470A780270D3
:103840004A7842708A788270CA78C2700A790271A6
:103850004A7942718A798271CA79C2710A7A02728E
:10386000704730B513464578032D14D10578AD1E49
:103870009D4202DC0578AD1E00E01D46ACB2801C06
:10388000002204E0855C0D70491C951CAAB2A2427E
:10389000F8DB00250D7030BD01460022C1F814236D
:1038A0000020704701460122C1F814230020704710
:1038B0003EB505460C46022002902846FDF74FFA19
:1038C00018B12846FDF74FFA30B9207820B120789A
:1038D000032801D00320207020780D287CD2DFE857
:1038E00000F0071822B1CE5F7C8F9C6BCECEA1007A
:1038F0002846FDF734FA58B101202070642000F00A
:103900003DFB2846FDF733FAD4F89010C86880478D
:10391000B6E0D5F81403012804D10220207032202B
:1039200000F02CFBACE0D4F89010886880470021B0
:103930002846FEF7C2F9607180212846FEF7BDF9DE
:1039400020712846FDF713FA48BBD4F89010C868D8
:1039500080472846FDF7BEF9C1B221200155052058
:1039600020702122105DD4F8902091698847A079B9
:103970000021CDE900102120035D94F82020217959
:103980002846FFF737FEA0790021CDE9001021205D
:10399000035D94F8202061792846FFF72BFE6FE045
:1039A00021462846FEF7FEFC28B9D4F89010486B53
:1039B00080470920207063E0D4F89010886B80471E
:1039C000012808D1D4F88C00214602682846904787
:1039D00008B90620207053E051E0D4F88C0021464D
:1039E00082682846904702909DF8080010B9072089
:1039F000207004E09DF808102046FEF7E8FA3FE04A
:103A0000D4F88C002146C2682846904702909DF861
:103A100008102046FEF7DBFA32E021462846FEF782
:103A2000ABFB2DE021462846FEF7A0FAD4F8901013
:103A300048688047D4F88C0004F120014268284689
:103A400090471DE0D4F89010086980472146284629
:103A5000FEF78CFAD4F8901048688047D4F88C00B0
:103A600004F120014268284690472846FEF770FA84
:103A70000020207001212846FDF741F900E000BF39
:103A800000BF3EBD01460020704770B506460C469B
:103A900015460021217505216175E58200212183EC
:103AA000618300231A4621463046FEF7C7F970BDF0
:103AB00070B506460C461546002121750921617531
:103AC000E58200212183618300231A462146304686
:103AD000FEF7B4F970BD10B5034618785870082089
:103AE000187099609A8101241C77002010BD000095
:103AF0002DE9F04105460E46174601241148FDF711
:103B00002EF9C0B110480078012814D100BF7B0203
:103B1000324629460B48FFF7BFFA04460B490948CD
:103B2000FEF7C8FE0748FDF71AF908B9012401E0BD
:103B3000032CECD000E0012404B900242046BDE8A9
:103B4000F0810000C8020020FC00002034020020A8
:103B500010B50248FDF703F9C0B210BDC80200203D
:103B60002DE9F04105460E46174601241148FDF7A0
:103B7000F6F8C0B110480078012814D100BF7B02CC
:103B8000324629460B48FFF73DFC04460B490948DD
:103B9000FEF790FE0748FDF7E2F808B9012401E0BE
:103BA000032CECD000E0012404B900242046BDE839
:103BB000F0810000C8020020FC0000203402002038
:103BC0002DE9F04106460C46174625466879082837
:103BD00003D106A0FCF7D0FB05E06879032802D1E9
:103BE00007A0FCF7C9FBBDE8F0810000BFC9D2C641
:103BF000B6AFB4E6B4A2C6F7C9E8B1B8210D0A0061
:103C000048494420C9E8B1B8210D0A000020014903
:103C100008707047FC00002010B502A0FCF7ACFB58
:103C200010BD0000B4D3BBFAB5D8D6B7B7D6C5E43B
:103C3000B3C9B9A6210D0A0010B502A0FCF79CFB80
:103C400010BD0000BCECB2E2B5BD555342C9E8B1AD
:103C5000B8B2E5C8EB210D0A0000000010B502A0C3
:103C6000FCF78AFB10BD0000555342C9E8B1B8B05B
:103C7000CEB3F6210D0A000010B502A0FCF77CFBC4
:103C800010BD0000CEDEB7A8CAB6B1F0B5C455531A
:103C900042C9E8B1B8210D0A0D0A000010B504466A
:103CA0001CB90AA0FCF768FB0EE0012C03D10CA0A4
:103CB000FCF762FB08E0022C03D10EA0FCF75CFBD2
:103CC00002E011A0FCF758FB10BD0000B8DFCBD913
:103CD00028485329555342C9E8B1B8210D0A0000BC
:103CE000C8ABCBD928465329555342C9E8B1B821AE
:103CF0000D0A0000B5CDCBD9284C5329555342C9E4
:103D0000E8B1B8210D0A0000C9E8B1B8B4EDCEF3AE
:103D1000210D0A0070B504462546298903A0FCF749
:103D20002BFB698905A0FCF727FB70BD5649443A77
:103D30002025303458680D0A000000005049443AEC
:103D40002025303458680D0A0000000010B502A08C
:103D5000FCF712FB10BD0000C9E8B1B8C3B6BED96C
:103D6000CDEAB3C9210D0A0D0A00000010B505A067
:103D7000FCF702FB09A0FCF7FFFA10A0FCF7FCFA25
:103D800010BD0000555342204F5447204853204D4A
:103D9000534320486F73740D0A0000003E205553B2
:103DA0004220486F7374206C69627261727920736B
:103DB0007461727465642E0D0A0000002020555352
:103DC0004220486F7374204C696272617279207668
:103DD000322E312E300D0A0D0A00000010B50024DD
:103DE0000C48007810B1012810D106E00AA0FCF7B9
:103DF000C3FA01200749087009E001F09FFD04465D
:103E0000002414B100200349087000E000BF00BF87
:103E1000204610BDFC000020BFAACABCD6B4D0D03A
:103E2000D3C3BBA7B3CCD0F22121210D0A000000DF
:103E300010B50446214602A0FCF79EFA10BD000012
:103E40004D616E7566616374757265723A20257393
:103E50000D0A000010B502A0FCF78EFA10BD00009C
:103E6000B6CBBFDAB5E7C1F7B9FDB4F32121210D17
:103E70000A00000010B50446214602A0FCF77CFAB7
:103E800010BD000050726F647563743A2025730D85
:103E90000A00000010B502A0FCF76EFA10BD000089
:103EA000B8B4CEBBC9E8B1B82E2E2E0D0A00000062
:103EB00010B50446214602A0FCF75EFA10BD0000D2
:103EC00053657269616C204E756D6265723A20258A
:103ED000730D0A0010B502A0FCF74EFA10BD0000E9
:103EE000CEDEB7A8BBD6B8B4B5C4B4EDCEF32121AD
:103EF000210D0A0D0A00000010B502A0FCF73CFAE3
:103F0000012010BDCCF8B9FDD3C3BBA7C8B7C8CF3B
:103F1000B2BDD6E8210D0A007047704738B5044697
:103F200043208DF8000000208DF8010003208DF85B
:103F3000020001208DF803006846FDF7D1F838BD76
:103F400038B504460020FDF72BFA01210803FDF7E0
:103F500011F901210420FDF73DF94FF4C050ADF8EF
:103F6000000018208DF8030003208DF80200694638
:103F70000148FCF71DFE38BD0008014010B504469D
:103F8000A0B202F03DFB10BD10B50446204602F081
:103F90005DFB10BD3EB50446002500200290019057
:103FA0000090207A01283DD1E068806B0190019853
:103FB00020F480300190607A28B1019820F48010BC
:103FC00000F5801001900198E1688863002002905C
:103FD000E068C0680290029820F0400002900298C9
:103FE00020F480000290029820F4003002900298A1
:103FF00020F4002002900298E168C860204600F09A
:10400000C7F8E078012843D1009820F01E000A305C
:104010000090009820F02000203000900098E16887
:10402000886035E0E068C0680290029820F04000A7
:10403000403002900298E168C860204600F0A8F87D
:1040400000200190019820F4803000F5803001902C
:10405000019820F4802000F580200190019820F440
:10406000002000F500200190019820F4001000F5D8
:1040700000100190607A28B1019820F4801000F5BA
:10408000801001900198E16888631420FFF776FFA3
:10409000E07801280FD1E06880680090009820F057
:1040A0001E000A300090009820F020002030009080
:1040B0000098E168886028463EBDFEB504460026AB
:1040C000002500200290019000902046FFF724FF79
:1040D0000021D4F80C010160207A012803D1204688
:1040E00000F021FC03E00121204600F01CFC2046EA
:1040F00000F06FFC606900680090009820F00400F8
:104100000090009960690160E07A01281DD180204B
:10411000E168486202986FF30F00803002900298C5
:1041200080B200F5C00002900298E16888620198B0
:104130006FF30F00E0300190019880B200F5C000ED
:1041400001900198E168C1F800011021204600F0BB
:1041500029F9204600F000F900250DE04FF0FF316D
:1041600004F1900050F825008160002104F19000D6
:1041700050F82500C1606D1C2078A842EED80121BE
:10418000204600F04EF8204600F0A4F83046FEBD70
:10419000F8B50446002600250020009000BF03204B
:1041A000FFF7F2FEE06800690090681C05461349BD
:1041B000884201D90020F8BD0098C00F0028EED039
:1041C0000025009820F00100401C00900098E16854
:1041D000086100BFE06800690090681C0546074957
:1041E000884200D904E0009800F001000028F1D1D5
:1041F00000BF0320FFF7C8FE3046DCE7400D030098
:1042000008B50146002000220092009A22F0010227
:10421000521C0092CA689268009B9A43CB689A60CD
:1042200008BD38B505460C460020009021462846BA
:10423000FFF773FE284600F09CFB00900098C0F347
:10424000003058B9012C09D1009820F4805000F5B5
:10425000805000900099D5F8CC0001600098C0F320
:10426000003040B13CB9009820F480500090009993
:10427000D5F8CC000160C820FFF780FE38BD08B536
:1042800000210091491EC26851606FF08041C268F0
:104290005161009921F0004101F100410091009924
:1042A00021F4006101F5006100910099C2689161FB
:1042B00008BD08B50146002000220092009A22F0B5
:1042C0000102521C0092CA689268009B1A43CB6894
:1042D0009A6008BD38B50446002500200090E168CA
:1042E0008861401EE16848612046FFF7C8FFE0781A
:1042F00020B9009820F0100010300090009820F4B1
:10430000001000F500100090009820F0007000F1FF
:1043100000700090009820F0807000F18070009094
:10432000E0688069009988430843E168886100205B
:104330000090009820F0005000F10050009000988C
:1043400020F0080008300090E068806900998843F8
:10435000E1688861284638BDF8B504460025002686
:1043600000200090009820F010001030009000987D
:10437000E168086100BFE06800690090701C0646B3
:104380000749884200D904E00098C0F300100028D3
:10439000F1D100BF0320FFF7F7FD2846F8BD00006C
:1043A000400D0300F8B504460D4600260027002006
:1043B0000090009820F0200020300090009865F3D5
:1043C0008A1000900098E168086100BFE068006909
:1043D0000090781C07460749884200D904E00098FD
:1043E000C0F340100028F1D100BF0320FFF7CCFD3F
:1043F0003046F8BD400D03000146C868406900F032
:10440000010070471CB50246002000230093009B6A
:1044100023F0004303F1004300930124009B64F365
:10442000DC43009302F1900353F82130009C1C619F
:1044300002F1900353F821301B680193019B23F094
:10444000004303F100430193019B23F08043019358
:1044500002F1900353F82130019C1C601CBD10B583
:1044600086B00246002000230393019302F19003DB
:1044700053F821301B680093009B23F0804303F125
:1044800080430093009BC3F3814323B1009BC3F39C
:104490008143022B11D1D368DB6A0393039BC3F3DF
:1044A0000743DBB9009B23F00043009302F1900324
:1044B00053F82130009C1C6010E053691B69019384
:1044C000019BC3F307434BB9009B23F000430093C8
:1044D00002F1900353F82130009C1C60009B23F0F4
:1044E000004303F10043009302F1900353F821309D
:1044F000009C1C6006B010BD3FB5024600200023A2
:104500000024029403940194441E009402F1900448
:1045100054F82140009DA56000240394D478012C18
:1045200004D1039C24F00404241D039402F56C744C
:1045300004EB4114647934B1012C6AD0022C03D00D
:10454000032C38D138E000BF039C24F00104641C24
:104550000394039C24F0080408340394039C24F07F
:10456000800480340394039C24F4806404F5806404
:104570000394039C24F010041034039402F56C742B
:1045800004EB4114A47834B1039C24F4807404F542
:10459000807403940FE0039C24F04004403403949F
:1045A00002F56C7404EB4114247924B1039C24F0CB
:1045B0002004203403944EE0039C24F00104641C86
:1045C0000394039C24F0100410340394039C24F0FF
:1045D000080408340394039C24F08004803403947A
:1045E000039C24F4806404F580640394039C24F405
:1045F000007404F50074039402F56C7404EB411428
:10460000A4782CB1039C24F4807404F58074039482
:1046100021E0039C24F00104641C0394039C24F413
:10462000007404F500740394039C24F020042034E7
:10463000039402F56C7404EB4114A47854B1039C08
:1046400024F0800480340394039C24F4807404F5E3
:104650008074039400BF00BF02F1900454F821401D
:10466000039DE560012404FA01F35469A4691C4325
:104670005569AC61029C24F0007404F1007402944A
:10468000D468A469029D2C43D568AC6100240194D0
:1046900002F56C7404EB41142578019C65F39C547D
:1046A000019402F56C7404EB41146578019C65F388
:1046B000CE24019402F56C7404EB4114A578019C9E
:1046C00065F3CF34019402F56C7404EB4114E47883
:1046D000022C01D1012500E00025019C65F3514425
:1046E000019402F56C7404EB41146579019C65F347
:1046F0009344019402F56C7404EB4114E588019C29
:1047000065F30A04019402F56C7404EB41146479B6
:10471000032C05D1019C24F0005404F100540194B1
:1047200002F1900454F82140019D256004B030BD91
:104730002DE9F04388B004460D464FF00009C84605
:104740004FF48077002006900790009004F56C707D
:1047500000EB4510006910B304F56C7000EB4510D8
:10476000016904F56C7000EB4510C0880144491ED6
:1047700004F56C7000EB4510C088B1FBF0F086B218
:10478000BE420DDD3E4604F56C7000EB4510C1885D
:10479000714304F56C7000EB4510016100E00126E7
:1047A00004F56C7000EB4510807850B104F56C7026
:1047B00000EB4510C188714304F56C7000EB4510A7
:1047C000016104F56C7000EB45100169069861F316
:1047D00012000690069866F3DC40069004F56C70B3
:1047E00000EB4510017A069861F35E70069004F1C3
:1047F000900050F8250006990161E078012809D160
:1048000004F56C7000EB4510C16804F1900050F89D
:104810002500416104F1900050F8250000680790E0
:10482000204600F08CF8079960F35D7107910798B6
:1048300020F0004000F100400790079820F08040F1
:10484000079004F1900050F8250007990160E07886
:10485000002864D104F56C7000EB451080780028C6
:104860005DD104F56C7000EB45100069002856D04E
:1048700004F56C7000EB4510407930B1012821D06F
:10488000022803D0032839D11BE000BFE068C06ACA
:10489000039004F56C7000EB45100069C01CC0F378
:1048A0008F08039880B240450ADA009820F0200073
:1048B00020300090E068806900990843E1688861D1
:1048C0001DE000BF60690069019004F56C7000EBA9
:1048D00045100069C01CC0F38F08019880B24045A4
:1048E0000BDA009820F0806000F180600090E068B2
:1048F000806900990843E168886100E000BF00BF5B
:1049000004F56C7000EB4510008A83B204F56C70FE
:1049100000EB45102A46C168204600F0EFFF4846EC
:1049200008B0BDE8F08308B5426912680092009AA9
:1049300061F301020092009B4269136008BD0146C9
:104940004869806800F0010080F00100704700B500
:1049500002461046FFF750FD012800D100BD00209F
:10496000FCE701460020CA685069CA689269104095
:10497000704708B50146D1F8CC0000680090009857
:1049800020F004000090009820F0020000900098B1
:1049900020F008000090009820F02000009000987F
:1049A00008BD0146486940697047F0B503460024D8
:1049B000D01CC71700EB9777BD10D3F8D06000BFAD
:1049C00003E030680860091D641CAC42F9D3084656
:1049D000F0BD38B504462046FFF7CBFF00900098A5
:1049E00020F4807000F5807000900099D4F8CC001D
:1049F00001606420FFF7C2FA009820F480700090F4
:104A00000099D4F8CC0001601420FFF7B7FA012018
:104A100038BD000070B502460C460023002000257A
:104A2000D5700125957040259580012C0CD14FF053
:104A3000A0430125D57208251570042555709D15D4
:104A4000D580022515720AE04CB9254B0025D57298
:104A50000C251570062555704FF4A065D580D360E0
:104A600003F500651561002110E003F5106505EB05
:104A7000411602F1180545F8216003F5306505EB94
:104A8000411602F1540545F82160491C55788D42C4
:104A9000EBD803F5806555614035C2F8CC50002154
:104AA00008E003F5A06505EB411602F1900545F815
:104AB0002160491C15788D42F3D8002108E003F5E8
:104AC000805505EB013602F1D00545F82160491CFF
:104AD00015788D42F3D803F56065C2F80C5170BDAE
:104AE00000000440F8B504460D460026E068C068A2
:104AF0000090009820F000500090009820F0804036
:104B00000090012D06D1009820F0005000F10050D7
:104B1000009006E02DB9009820F0804000F1804020
:104B200000900098E168C8603220FFF727FA30460D
:104B3000F8BD000038B50446002000900748006822
:104B4000816820468847009820F0005000F100500E
:104B500000900098E1684861012038BDB400002051
:104B60000CB50146D1F8900000680090009820F044
:104B7000004000F100400090009820F0804000F1DB
:104B800080400090009AD1F89000026000200190CF
:104B9000019820F4001000F5001001900198CA68F7
:104BA000506101200CBD7CB5054600240026284636
:104BB000FFF7F7FE019000BF1BE0019880B20121D2
:104BC000A1400840A0B105F1900050F82400006811
:104BD00000900098C0F3C03028B12146284600F06C
:104BE0000DF8064304E02146284600F016FA064375
:104BF000641C2878A042E0D830467CBD70B586B0F1
:104C000005460C4605F1900050F82460B068059008
:104C1000F0680490DDE904100840059005F190006B
:104C200050F8240000680390002004900598C0F319
:104C30008000D0B100200190019820F00400001DF8
:104C400001900198B06005F1900050F82400C06810
:104C50000190019820F00200801C019005F1900065
:104C600050F824000199C16073E00598C0F340102A
:104C700048B100200190019820F0200020300190E0
:104C80000198B06065E00598C0F3C00078B305F105
:104C9000900050F82400C0680190019820F00200B4
:104CA000801C019005F1900050F824000199C1602A
:104CB000052105F56470015500200190019820F050
:104CC0001000103001900198B06000200190019810
:104CD00020F00800083001900198B060059820F09D
:104CE00010000590E1B22846FFF7B9FB31E0FFE77D
:104CF0000598C0F3802060B305F1900050F82400BF
:104D0000C0680190019820F00200801C019005F11C
:104D1000900050F824000199C160E1B22846FFF7E5
:104D20009EFB00200190019820F0100010300190AF
:104D30000198B060082105F56470015500200190CC
:104D4000019820F4806000F5806001900198B060C7
:104D500000BF0598C0F34020F8B105F1900050F86D
:104D60002400C0680190019820F00200801C01908E
:104D700005F1900050F824000199C160E1B2284685
:104D8000FFF76DFB00200190019820F4007000F502
:104D9000007001900198B0603CE1059800F00100BE
:104DA000002871D0E878012812D105F1900050F860
:104DB00024000069029005F56C7000EB4410006956
:104DC0000299C1F31201411A05F5557040F82410FB
:104DD000012105F5647001550021783840F8241050
:104DE00000200190019820F00100401C01900198E2
:104DF000B0600398C0F3814020B10398C0F38140B4
:104E000002282AD105F1900050F82400C0680190D2
:104E1000019820F00200801C019005F1900050F8EC
:104E200024000199C160E1B22846FFF718FB002079
:104E30000190019820F01000103001900198B060AE
:104E400005F56C7000EB4410007E80F0010105F563
:104E50006C7000EB44100176DCE00398C0F38140F5
:104E6000032899D1039820F0005000F100500390DE
:104E700005F1900050F8240003990160012105F22A
:104E80009F300155C6E0FFE70598C0F340000028B9
:104E900051D005F1900050F82400C06801900198AD
:104EA00020F00200019005F1900050F824000199D3
:104EB000C16005F56470005D012804D1012105F28F
:104EC0009F3001552DE005F56470005D052804D183
:104ED000042105F29F30015523E005F56470005D63
:104EE000062804D005F56470005D082808D100216B
:104EF00005F5467040F8241003218730015510E075
:104F00000398C0F3814003280BD105F56C7000EBCA
:104F10004410007E80F0010105F56C7000EB441038
:104F2000017600200190019820F00200801C019081
:104F30000198B0606EE00598C0F3C01010B305F1A1
:104F4000900050F82400C0680190019820F0020001
:104F5000801C019005F1900050F824000199C16077
:104F6000062105F564700155E1B22846FFF777FA8E
:104F700000200190019820F080008030019001987D
:104F8000B06047E00598C0F30010E0B30398C0F3A9
:104F90008140032816D105F1900050F82400C06824
:104FA0000190019820F00200801C019005F1900012
:104FB00050F824000199C160E87818B9E1B2284698
:104FC000FFF74DFA032105F56470015500200190AB
:104FD000019820F01000103001900198B060039803
:104FE000C0F3814020B10398C0F38140022811D161
:104FF000039820F0004000F100400390039820F057
:105000008040039000E005E005F1900050F8240096
:1050100003990160012006B070BD7FB505460C46BE
:1050200005F1900050F82460B0680390F068029099
:10503000DDE902100840039005F1900050F82400CB
:10504000006801900398C0F38000D0B10020009068
:10505000009820F00400001D00900098B06005F159
:10506000900050F82400C0680090009820F00200E2
:10507000801C009005F1900050F824000099C16058
:10508000A4E10398C0F3401048B1002000900098BC
:1050900020F02000203000900098B06096E1039846
:1050A000C0F34020F8B105F1900050F82400C0682A
:1050B0000090009820F00200801C009005F1900004
:1050C00050F824000099C160E1B22846FFF7C7F903
:1050D00000200090009820F4007000F5007000900F
:1050E0000098B06072E1039800F0010038B300212D
:1050F00005F5467040F8241005F1900050F82400A2
:10510000C0680090009820F00200801C009005F11B
:10511000900050F824000099C160E1B22846FFF7E2
:105120009EF900200090009820F00100401C0090A3
:105130000098B060012105F56470015546E10398BF
:10514000C0F3C00010B300200090009820F00800C9
:10515000083000900098B06005F1900050F82400ED
:10516000C0680090009820F00200801C009005F1BB
:10517000900050F824000099C160E1B22846FFF782
:105180006EF9052105F5647001551FE10398C0F320
:10519000001048B3002105F5467040F8241005F1D1
:1051A000900050F82400C0680090009820F00200A1
:1051B000801C009005F1900050F824000099C16017
:1051C000E87818B9E1B22846FFF749F900200090C5
:1051D000009820F01000103000900098B06003217B
:1051E00005F564700155F1E00398C0F3C01010B3E9
:1051F00005F1900050F82400C0680090009820F05D
:105200000200801C009005F1900050F824000099E5
:10521000C160E1B22846FFF722F9062105F5647066
:10522000015500200090009820F080008030009010
:105230000098B060CAE00398C0F3801048B3002122
:1052400005F5467040F8241005F1900050F8240050
:10525000C0680090009820F00200801C009005F1CA
:10526000900050F824000099C160E87818B9E1B2C4
:105270002846FFF7F4F800200090009820F0400046
:10528000403000900098B060042105F5647001552D
:105290009CE00398C0F3802060B305F1900050F8C3
:1052A0002400C0680090009820F00200801C00904C
:1052B00005F1900050F824000099C160E1B2284641
:1052C000FFF7CDF800200090009820F0100010307B
:1052D00000900098B060082105F564700155002029
:1052E0000090009820F4806000F5806000900098A5
:1052F000B0606BE00398C0F34000002866D005F171
:10530000900050F82400C0680090009820F002003F
:10531000009005F1900050F824000099C16005F557
:105320006470005D012815D1012105F29F300155FF
:105330000198C0F3814002283ED105F56C7000EB66
:105340004410407E80F0010105F56C7000EB4410C4
:10535000417631E005F56470005D032804D1022137
:1053600005F29F30015527E005F56470005D0428C3
:105370000FD105F56C7000EB44100079012803D1C2
:10538000E1B22846FFF73EF8022105F29F300155B1
:1053900012E005F56470005D052804D1042105F2D2
:1053A0009F30015508E005F56470005D062803D1C3
:1053B000032105F29F30015500200090009820F055
:1053C0000200801C00900098B06000BF012004B073
:1053D00070BD7FB50446E068C06A00900198C0F3D4
:1053E000C30104F56C7000EB41100069C01CC0F3F0
:1053F0008F0673E04FF6FF71009801EA800501986F
:10540000C0F3C30104F56C7000EB41100069A842C1
:1054100015D20198C0F3C30104F56C7000EB411084
:10542000008A85B200200390039820F020002030ED
:105430000390E068806903998843E1688861019876
:10544000C0F3C30104F56C7000EB41100069C01C8F
:10545000C0F38F060198C0F3C302C0F3C30304F581
:105460006C7000EB43102B46C168204600F046FAF2
:105470000198C0F3C30104F56C7000EB4110C068E3
:1054800041190198C0F3C30204F56C7000EB42109F
:10549000C1600198C0F3C30104F56C7000EB4110CA
:1054A0000069411B0198C0F3C30204F56C7000EB66
:1054B000421001610198C0F3C30104F56C7000EB68
:1054C0004110406941190198C0F3C30204F56C70A2
:1054D00000EB42104161E068C06A0090009880B221
:1054E000B0420ADD0198C0F3C30104F56C7000EB13
:1054F0004110006900287FF47DAF012004B070BD29
:105500007FB5044600250020009001900390029092
:10551000D4F8CC0000680390D4F8CC000068029066
:10552000029820F004000290029820F002000290FD
:10553000029820F008000290029820F020000290CB
:105540000398C0F3400058B1029820F00200801C7C
:1055500002903948006841682046884745F00105B7
:105560000398C0F3C000002853D0029820F0080030
:10557000083002900398C0F38000002844D00398BC
:10558000C0F34140022804D00398C0F341400128F1
:1055900025D16069006801900398C0F3414002285A
:1055A0001DD141F2707160694160019800F0030003
:1055B000022814D0207A022804D102212046FFF7C5
:1055C000B2F90CE04BF6803160694160019800F05F
:1055D0000300012803D001212046FFF7A4F9164853
:1055E0000068C1682046884700200090009820F09D
:1055F000005000F100500090E068806900998843F5
:105600000843E168886104E00B48006801692046AE
:1056100088470398C0F3401030B1029820F0200072
:105620002030029045F001050299D4F8CC000160C9
:10563000284604B070BD0000B4000020FEB504464A
:105640006069006900900198C0F3C30104F56C70B3
:1056500000EB41100069C01CC0F38F0674E04FF6E8
:10566000FF71009801EA80050198C0F3C30104F5B9
:105670006C7000EB41100069A84216D20198C0F38B
:10568000C30104F56C7000EB4110008A85B2002064
:105690000290029820F0806000F180600290E06843
:1056A000806902998843E16888610198C0F3C30169
:1056B00004F56C7000EB41100069C01CC0F38F064C
:1056C0000198C0F3C302C0F3C30304F56C7000EB90
:1056D00043102B46C168204600F010F90198C0F332
:1056E000C30104F56C7000EB4110C06841190198CA
:1056F000C0F3C30204F56C7000EB4210C160019866
:10570000C0F3C30104F56C7000EB41100069411B4C
:105710000198C0F3C30204F56C7000EB4210016104
:105720000198C0F3C30104F56C7000EB41104069AF
:1057300041190198C0F3C30204F56C7000EB4210EC
:105740004161606900690090009880B2B0420ADD52
:105750000198C0F3C30104F56C7000EB41100069BF
:1057600000287FF47CAF0120FEBD30B585B0044633
:10577000002000900390039820F010001030039058
:10578000E068806903998843E1688861E068006A9D
:105790000490049800F00F00009004F190009DF830
:1057A000001050F82100006801900498C0F34340B5
:1057B000022806D0032878D0052877D0072873D18F
:1057C00075E00498C0F30A10002869DD04F56C70D8
:1057D0009DF8001000EB4110C068002860D00498CC
:1057E000C0F30A1204F56C709DF8003000EB431012
:1057F000C1682046FFF7D9F8049800F00F0104F5BE
:105800006C7000EB4110C0680499C1F30A110144A7
:10581000049800F00F0204F56C7000EB4210C160B8
:10582000049800F00F0104F56C7000EB4110406922
:105830000499C1F30A110144049800F00F0204F521
:105840006C7000EB4210416104F56C709DF8001023
:1058500000EB4110456904F555709DF8001040F8C3
:10586000215004F190009DF8001050F821000069CB
:1058700002900298C0F3C940002811DD019820F081
:10588000004000F100400190019820F0804001901C
:1058900004F190009DF80020019950F82200016069
:1058A00006E002E002E0FFE700BF00BF00BF00BF6C
:1058B00000BF039820F0100010300390E06880696A
:1058C00003990843E1688861012005B030BD0000FC
:1058D00038B504460020009007480068016820465B
:1058E0008847009820F00800083000900098E16890
:1058F0004861012038BD0000B40000202DE9F041CE
:1059000004460026E078B0B900270020DD1C4FEAED
:10591000E57805EB98784FEAA80704F1D00555F82B
:1059200022C000BF04E00D68CCF80050091D401CE7
:10593000B842F8D300BF3046BDE8F0817CB5002402
:105940003EA0FAF719FD41490122086840A102F082
:1059500083FE6A4601A93EA002F050FD044664B9E8
:105960003CA0FAF709FD0198810A3DA0FAF704FD71
:105970000098810A41A0FAF7FFFC47480578012109
:10598000382001F0A1FAC82000F03AFE00213820AA
:1059900001F09AFAC82000F033FE0121382001F00E
:1059A00093FAC82000F02CFE0021382001F08CFA78
:1059B0000121284601F088FA11E007F019F907F0F3
:1059C000CBFD3648007850B90020FBF7E9F920B14B
:1059D00033A0FAF7D1FC0DF047F9FBF721FA344870
:1059E000FBF7BDF90028E8D12B48057801213820C4
:1059F00001F06AFAC82000F003FE0021382001F00F
:105A000063FAC82000F0FCFD0121382001F05CFAA7
:105A1000C82000F0F5FD0021382001F055FA0121E1
:105A2000284601F051FA012209A1002002F014FEDB
:105A300020A0FAF7A1FC20467CBD0000C9E8B1B85F
:105A4000C1ACBDD3B3C9B9A6210D0A00880000209E
:105A5000303A00004641544653204F4B210000008D
:105A600055204469736B20546F74616C2053697ABC
:105A7000653A202564204D420D0A000055204469F6
:105A8000736B2020467265652053697A653A20253C
:105A900064204D420D0A00002C0000202000002050
:105AA0006B657920707265737365640D0A00000080
:105AB000C8020020C9E8B1B8C1ACBDD3D6D02E2EE3
:105AC0002E0D0A0000BFFEE730380A2801D201205F
:105AD000704700207047014600BF70472DE9F0472E
